:020000040800F2
:10000000C8080020C901000851100008F70E0008B8
:100010004D100008ED0700087325000800000000DF
:100020000000000000000000000000006D17000844
:100030008908000800000000E510000849190008C0
:10004000E3010008E3010008E3010008FD140008D3
:10005000E3010008E3010008E50A0008E3010008E5
:10006000E3010008210B0008510B0008E301000820
:10007000E3010008E3010008E3010008E3010008D0
:10008000E3010008E3010008E3010008E3010008C0
:10009000E3010008E3010008E3010008E3010008B0
:1000A000E3010008E3010008E3010008E3010008A0
:1000B000E3010008AD190008D5210008E30100089C
:1000C000E3010008E3010008E3010008E301000880
:1000D000E30100088D240008E3010008E3010008A3
:1000E000E3010008E3010008E301000800F002F862
:1000F00000F041F80AA090E8000C82448344AAF181
:100100000107DA4501D100F036F8AFF2090EBAE87E
:100110000F0013F0010F18BFFB1A43F0010318473B
:100120007427000094270000103A24BF78C878C1D3
:10013000FAD8520724BF30C830C144BF04680C60ED
:10014000704700000023002400250026103A28BF35
:1001500078C1FBD8520728BF30C148BF0B60704739
:10016000642900F09380002070471FB500F0DFF88D
:100170001FBD10B510BD00F06FF91146FFF7F5FF78
:1001800002F078FA00F08DF903B4FFF7F2FF03BC38
:1001900002F0F1F90B49D1F800C04A685CF8043B61
:1001A0001068184442F8040B8C4528BFA1F1DC0C00
:1001B0008A4228BFA1F1DC02C1F800C04A6020F0E9
:1001C0000040704760020020094880470948004706
:1001D000FEE7FEE7FEE7FEE7FEE7FEE7FEE7FEE7F7
:1001E000FEE7FEE704480549054A064B7047000054
:1001F0004D190008ED000008C8020020C8080020C2
:10020000C8040020C8040020704700000FB404494F
:1002100010B503AA029800F0F1F810BC5DF814FBC9
:10022000A80000202DE9F0410E460446002020627F
:100230002046E168884730B3252805D0D4E901215C
:100240009047206A401CF2E7E16820460027884773
:10025000050018D0A5F14100192802D820354FF427
:1002600000673246294620462760FFF779FF40B1F4
:10027000012804D0F61D26F007060836D8E7361DFB
:10028000D6E72846DAE7206ABDE8F0812DE9F0419B
:100290000646002410687529314616A510D0AFF324
:1002A0000080002802DA404213A507E031688A077F
:1002B00001D512A502E0490704D511A5012401E0EA
:1002C000AFF3008000210A2206F1240709E0B0FB09
:1002D000F2FCB0FBF2F302FB1C00303078541846FD
:1002E000491C0028F3D123462A463046BDE8F04198
:1002F00000F02AB8000000002D0000002B000000D4
:10030000200000000B4910B5A1F17C020A4CC2E9A3
:100310003712372106E000EB104342F82130074B3B
:1003200000FB03400B1EA1F10101F4DC10BD012014
:10033000E8E7000000020020E119D666CD0D0100BB
:1003400070477047704770472DE9F0470D46994652
:100350009246044600F124080168880604D5E06945
:1003600021F01001216000E00120A84201DD471BBF
:1003700000E00027A1697A1902EB0900081AA061C0
:100380002078C00602D42046AFF30080002608E0A3
:10039000D4E901211AF806009047206A401C761C17
:1003A00020624E45F4DB2078C0060AD52046AFF324
:1003B000008006E0D4E9012130209047206A401CEB
:1003C0002062381EA7F10107F4DC07E0D4E901211F
:1003D00018F805009047206A401C2062281EA5F1ED
:1003E0000105F3DC2046AFF300802078000602D53B
:1003F0000220BDE8F0870120FBE70000074B70B545
:100400000D467B4400F011F80446284600F020F821
:1004100010B14FF0FF3070BD204670BD5322000078
:1004200001694A1C02610878704700B58FB0CDE9B8
:1004300001310021059105497944CDE903101146A8
:100440006846FFF7EFFE0FB000BD0000E5FFFFFFBD
:10045000007B00F080007047754600F029F8AE463A
:1004600005006946534620F00700854618B020B5C0
:10047000FFF7B8FEBDE820404FF000064FF0000740
:100480004FF000084FF0000B21F00701AC46ACE83C
:10049000C009ACE8C009ACE8C009ACE8C0098D46A9
:1004A00070470446AFF300802046FFF76DFE000062
:1004B0000048704768020020CA430260704721B1BB
:1004C000826842F00102826003E0826822F0010249
:1004D0008260704710B504461248844208D1012159
:1004E000401500F02DFE0021601500F029FE17E0F8
:1004F0000D48844208D10121001500F021FE0021A1
:10050000201500F01DFE0BE00848844208D10121AF
:10051000C80300F015FE00214FF4004000F010FE6B
:1005200010BD00000024014000280140003C0140B3
:10053000014600208A6802F004020AB1012000E0AE
:10054000002070470146C86C80B270470246002008
:1005500013680B400BB1012000E0002070470146FA
:1005600000208A6802F008020AB1012000E00020A1
:100570007047000030B502460020002350680F4C41
:1005800020400D790C6844EA0524204350609068AF
:100590000B4C2040D1E902542C434D7944EA4504E8
:1005A00020439060D06A20F470000C7C641EE4B29A
:1005B000234340EA0350D06230BD0000FFFEF0FF4D
:1005C000FDF7F1FFF0B504460D4600200021092D8E
:1005D00011DDE068A5F10A0606EB4607072606FAD4
:1005E00007F18843A5F10A0606EB460603FA06F171
:1005F0000843E0600CE0206905EB4507072606FA92
:1006000007F1884305EB450603FA06F1084320612C
:10061000072A0FDA606B561E06EB86071F2606FABE
:1006200007F18843561E06EB860605FA06F10843D5
:10063000606322E00D2A0FDA206BD61F06EB8607D7
:100640001F2606FA07F18843D61F06EB860605FA31
:1006500006F10843206310E0E06AA2F10D0606EB04
:1006600086071F2606FA07F18843A2F10D0606EB5E
:10067000860605FA06F10843E062F0BD816841F0A4
:1006800008018160704721B1826842F4A002826053
:1006900003E0826822F4A00282607047816841F022
:1006A00004018160704710B5012000F059FD002061
:1006B00000F056FD10BD000008B501460020009076
:1006C000034800900098084400900098008808BDF6
:1006D000006C004008B500220092044A0092009A83
:1006E00002440092009A116008BD0000006C0040B6
:1006F00010B501F003F901200F4908600F49C1F856
:10070000BC0100200E4908800E4908800E4908707F
:100710000E4908700E4908700E4908700E4908709D
:1007200000F09EF84FF47A7001F04AFF47216320F1
:1007300001F020FD10BD0000840121420000214293
:1007400014000020160000201B00002019000020CB
:10075000180000201A0000202000002010B5012001
:100760000A49086000200A4908800A4908800A49A5
:1007700008700A4908700A4908700A4908700A494D
:1007800008704721632001F0F5FC10BDBC01214237
:1007900014000020160000201B000020190000207B
:1007A000180000201A0000202000002010B50020B2
:1007B0000B4908600B49C1F8840101210A4801F086
:1007C000E9FD00220121084801F004FE0021022079
:1007D00000F096FC0021044801F0DFFD10BD000090
:1007E000BC012142000021420004004000BFFEE79E
:1007F00010B50020084908700021084801F0CDFD1F
:1008000000220121054801F0E5FD40F2CF2140F230
:10081000E14001F0AFFC10BD1900002000040040D1
:1008200010B500210B4801F0B8FD0121094801F085
:10083000B1FD00220121074801F0CCFD0021042078
:1008400000F05EFC00200449086001200349C1F863
:100850009C0110BD00080040980121420000214287
:100860001CB5002000900190684601F04BFF00206D
:100870000349086001200349C1F89C011CBD000028
:100880009801214200002142704700001CB51A481F
:1008900000780A2190FBF1F201FB1200C0B28DF842
:1008A00005001548007890FBF1F0C0B28DF8040007
:1008B0001248007890FBF1F201FB1200C0B28DF8F3
:1008C00003000E48007890FBF1F0C0B28DF80200F2
:1008D0000B48007890FBF1F201FB1200C0B28DF8DA
:1008E00001000748007890FBF1F0C0B28DF80000DD
:1008F000684601F007FF1CBD3B0000203A000020C5
:10090000390000201CB500F021FD394880883949A4
:10091000088037488079384908703548C0793749A8
:1009200008703348007A364908700846007808B9DC
:1009300007200870314800780A2190FBF1F201FB92
:100940001200C0B28DF805002C48007890FBF1F041
:10095000C0B28DF804002848007890FBF1F201FB4A
:100960001200C0B28DF803002348007890FBF1F02C
:10097000C0B28DF802001F48008890FBF1F201FB25
:100980001200C0B28DF801001A480088642190FB63
:10099000F1F201FB12000A2190FBF1F0C0B28DF8D8
:1009A0000000684601F0AEFE01201649086040F2E2
:1009B000DC5001F005FE4FF47A7001F001FE0024D6
:1009C00005E00F4800780DF80400601CC4B2062C46
:1009D000F7DB684601F096FE00200A49086040F205
:1009E000DC5001F0EDFD4FF47A7001F0E9FD1CBD23
:1009F000B00000203E00002037000020380000201A
:100A00003C0000209801214210B500F08BFA002034
:100A10000C4908600C49C1F8AC010A490839086062
:100A2000091F0860012007491C390860002005499A
:100A30001039086003491839086001200249C1F8DB
:100A40009C0110BDB00121420000214210B50020E0
:100A50000649087040F2CF2142F20F7001F06AFCA3
:100A6000FFF714FF00F082FD10BD000059000020C8
:100A700010B500201449087000F068FC1348007895
:100A80001349087011484078124908700F4880785F
:100A9000114908700E4800780C2803DA00200F492D
:100AA000087002E002200D49087040F2CF2142F2A6
:100AB0000F7001F03FFC0020034908700120084935
:100AC0000860FFF7E3FE10BD59000020B0000020D1
:100AD000390000203A0000203B00002025000020C3
:100AE0009801214210B5642001F06AFD01210B48F4
:100AF00000F0F8F9012809D1FFF758FEFFF790FE42
:100B000000F0FCFEFFF7FEFEFFF7B2FF052001F04C
:100B100057FD012000F090F810BD000000080140D2
:100B200010B5642001F04CFD0821074800F0DAF907
:100B300030B9FFF73BFEFFF773FE01200349087051
:100B4000082000F079F810BD00080140A000002046
:100B500010B5642001F034FD1021094800F0C2F9FD
:100B600038B9FFF723FE00F0C9FEFFF759FEFFF783
:100B70007FFF322001F024FD102000F05DF810BD51
:100B8000000801400EB50121084600F0C9FA032112
:100B9000002000F0B3F80820019000208DF8080034
:100BA0000C208DF8090001208DF80A0001A800F042
:100BB00049F80421002000F0A1F81020019001A8BC
:100BC00000F040F80021084600F098F8012001905C
:100BD00008208DF8090001A800F034F806208DF8EF
:100BE000000001208DF8010002208DF80200012094
:100BF0008DF80300684600F02DFA09208DF80000FA
:100C000001208DF8010002208DF8020001208DF8EE
:100C10000300684600F01EFA0A208DF8000001204B
:100C20008DF8010002208DF8020001208DF80300EC
:100C3000684600F00FFA0EBD0149086070470000D9
:100C400014040140002123498279002A3AD00A463F
:100C5000126803689A430B461A600A1D12680368FB
:100C60009A430B1D1A60027911440A6803681A43FB
:100C70000A60184A0832126803689A43154B083311
:100C80001A601A1D126803689A43124B0C331A60DB
:100C90004279102A0ED11A1F126803681A430D4BAD
:100CA00008331A601A1D126803681A43094B0C3383
:100CB0001A600DE00749427911440A6803681A4333
:100CC0000A6005E0027911440A6803689A430A60E1
:100CD000704700000004014010B50021064801F0F3
:100CE0005CFB00220121044801F074FB47216320D2
:100CF00001F040FA10BD00000004004030B50022B1
:100D00008B071C0F0F2303FA04F20B4B8C1053F8C4
:100D100024309343084C8D1044F8253023468C1022
:100D200053F824308C07240F00FA04F42343024CB8
:100D30008D1044F8253030BD080001402DE9F04108
:100D4000024600250026002000230024002791F8F9
:100D500003C00CF00F0591F803C00CF0100CBCF1AF
:100D6000000F03D091F802C04CEA050591F800C0CD
:100D7000BCF1000F31D0146800202BE04FF0010CC3
:100D80000CFA00F3B1F800C00CEA03069E4220D131
:100D900083004FF00F0C0CFA03F7BC4305FA03FC79
:100DA0004CEA040491F803C0BCF1280F06D14FF0BF
:100DB000010C0CFA00FCC2F814C00AE091F803C060
:100DC000BCF1480F05D14FF0010C0CFA00FCC2F841
:100DD00010C0401C0828D1D31460B1F800C0BCF189
:100DE000FF0F34DD546800202EE000F1080C4FF0B6
:100DF000010808FA0CF3B1F800C00CEA03069E42A1
:100E000021D183004FF00F0C0CFA03F7BC4305FA15
:100E100003FC4CEA040491F803C0BCF1280F05D18F
:100E200000F1080C08FA0CF8C2F8148091F803C01D
:100E3000BCF1480F07D100F1080C4FF0010808FA87
:100E40000CF8C2F81080401C0828CED35460BDE8CE
:100E5000F0810000F0B50A4600230024002100259F
:100E600000F00046B6F1004F02D11D4EF16901E0DD
:100E70001B4E7168C0F3034583B200F44016B6F50B
:100E8000401F08D121F07061154E766826F070661B
:100E9000134F7E6012E000F48016B6F5801F06D175
:100EA000032606FA05F4A14341F0706106E0460D01
:100EB000360103FA06F6B14341F0706122B1460DE6
:100EC000360103FA06F6314300F00046B6F1004F52
:100ED00002D1034EF16101E0014E7160F0BD0000EE
:100EE000000001400246002093680B400BB1012036
:100EF00000E00020704700BFFEE7000010B50021B1
:100F0000074801F04AFA00220121054801F062FA7F
:100F100040F2CF214FF41C7001F02CF910BD0000FD
:100F20000004004008B50121082000F0F9F8012173
:100F3000084600F0F5F8022001F042FB01212048AC
:100F4000FFF788FF0420ADF800008DF803000320B0
:100F50008DF8020069461B48FFF7F0FE4FF4004091
:100F6000ADF8000010208DF8030002208DF802007B
:100F700069461448FFF7E2FE0220ADF80000102099
:100F80008DF8030002208DF8020069460D48FFF736
:100F9000D5FE4FF4FF50ADF8000010208DF803008F
:100FA00003208DF8020069460648FFF7C7FE0121BD
:100FB000082000F0B5F80121084600F0B1F808BD9E
:100FC00000023000000801400146CA1701EB92728E
:100FD0009210A1EB820292B9642091FBF0F200FB27
:100FE000121050B94FF4C87091FBF0F200FB1210D0
:100FF00008B9012070470020FCE70120FAE7002033
:10100000F8E7000008B50121042000F089F8182055
:10101000ADF8000048208DF8030002208DF8020092
:1010200069460948FFF78AFE0120ADF80000282034
:101030008DF8030002208DF8020069460248FFF790
:101040007DFEFFF79FFD08BD0008014000BFFEE7E1
:101050007047000070B5002100230F22C47804B34C
:10106000154C246804F4E064C4F5E064210AC1F17D
:101070000403CA40447804FA03F1847814402143FD
:1010800009010E4C0678A155047804F01F050124CF
:10109000AC4005786D11AD0005F1E025C5F80041C3
:1010A00009E0047804F01F050124AC40044D0678E3
:1010B000761145F8264070BD0CED00E000E400E03C
:1010C00080E100E002490143024A116070470000DC
:1010D0000000FA050CED00E00149086270470000CD
:1010E00000000E427047000001460020034A50688D
:1010F00020F4404008435060704700000010024058
:1011000029B1064AD2690243044BDA6104E0034A7A
:10111000D2698243014BDA6170470000001002403F
:1011200029B1064A92690243044B9A6104E0034ADA
:1011300092698243014B9A6170470000001002409F
:1011400029B1064AD2680243044BDA6004E0034A3C
:10115000D2688243014BDA60704700000010024001
:1011600001490860704700004004424210B5014642
:101170000022002300204A11012A02D1094C2368D1
:1011800006E0022A02D1074C236A01E0054C636A9B
:1011900001F01F02012494401C400CB1012000E02A
:1011A000002010BD0010024000210B4A11700A4AB5
:1011B000203A82F82010012802D0042808D103E048
:1011C0000121054A117004E00521034A117000E075
:1011D00000BF00BF704700002010024001490860B6
:1011E000704700003C0442420249096A0143014A37
:1011F000116270470010024070B5054600240026B9
:101200000223012229461248FFF7DCF90121104888
:10121000FFF739FA13E000BF02210D48FFF796F9F6
:101220000028F9D00A48FFF78DF900F00100A0402E
:10123000064302210648FFF73FF9601CC4B2202C88
:10124000E9DB00210248FFF71EFA304670BD0000BE
:10125000002401402DE9F04106460C4615460027C2
:101260003046FFF7C9FF07463846FFF74BF8FEF751
:1012700091FF291B491C90FBF1F201FB1200204455
:10128000BDE8F08100B587B001214FF40270FFF78F
:1012900047FF4FF40040FFF727FF0120ADF804009F
:1012A00000208DF8070001A91848FFF747FD1848EE
:1012B000FFF710F9002002908DF80C0001208DF846
:1012C0000D004FF4602004900020059001208DF85F
:1012D000180002A90E48FFF74DF901210C48FFF74D
:1012E000EEF80B48FFF7CAF900BF0948FFF737F9D6
:1012F0000028FAD10648FFF7D1F900BF0448FFF7EC
:1013000017F90028FAD107B000BD0000000C014019
:1013100000240140024909888143014A1180704735
:10132000042800400348008840F01000014908806C
:101330007047000004280040034800884FF6EF7112
:1013400008400149088070470428004070B5002615
:101350000024002500F07AF806463848B6FBF0F481
:1013600037480088A0423CD035490C8040F2B27525
:1013700010E02846FFF728FE40B1B4F5B77F02D34E
:10138000A4F5B77404E0681C85B206E0A4F26D14FD
:10139000681C85B2B4F5B67FEBD800BF29488580BC
:1013A000002516E027498888FFF70EFE30B1012D91
:1013B00004D11D2C01D31D3C09E00CE02248405D06
:1013C000A04203D82048405D241A00E003E0681CD6
:1013D00085B21C2CE6D200BF681C1A498871601CBB
:1013E000C8711648B6FBF0F100FB11644FF4616060
:1013F000B4FBF0F0134908704FF46160B4FBF0F1F6
:1014000000FB11403C21B0FBF1F00E4948704FF455
:101410006160B4FBF0F100FB11403C21B0FBF1F244
:1014200001FB1200074988700B46DA799979988890
:1014300000F028F803490872002070BD80510100B7
:10144000A2000020B00000208828000800210348E6
:101450000188001F008841EA004070471C280040B6
:1014600001460020064A12880A40D0B2044A121FE0
:1014700012880A4012B108B1012000E00020704734
:1014800004280040F0B503460C461546642093FB43
:10149000F0F0C6B2642093FBF0F700FB1730C1B246
:1014A000132E02DD01F16400C1B20846CF1701EB33
:1014B000977701EBA707BAB2072092FBF0F700FB82
:1014C000172082B25719601EDFF82CC01CF80000EC
:1014D000384482B2CF1701EB9777BF10A1EB870793
:1014E0001FB9032C01DA501E82B2072092FBF0F7DD
:1014F00000FB1720C0B2F0BD7C2800080EB501200B
:10150000FFF7AEFF08B1FFF721FF0220FFF7A8FFAA
:10151000A0B10220FFF7FEFEFFF718FF0A4880780F
:1015200009494978084A1278CDE900210290064815
:10153000C3798279818805A0FEF768FE0520FFF750
:10154000E9FE00F0F7F80EBDB0000020416C6172BA
:101550006D2054696D653A25642D25642D25642020
:1015600025643A25643A25640A0000001CB500246D
:1015700001214FF0C050FFF7C3FD0120FFF7ACFD84
:101580000420FFF799F845F25001884226D0FFF772
:101590008AF80120FFF708FE04E0601CC4B20A20AC
:1015A00001F00EF84120FFF7E1FD08B9FA2CF4DB59
:1015B000FA2C01DB01201CBD4FF48070FFF714FEF4
:1015C0000120FFF70BFE00F0B5F800F0BDF800F0C9
:1015D000B1F845F250010420FFF77CF800F0AAF8BA
:1015E000FFF7A0FE47F6FF7000F094F800F0A2F8B5
:1015F0000948007809490978CDE9001008480378BE
:1016000008480278084801780848008800F010F877
:10161000FFF792FE0020CEE73B0000203A000020BA
:101620003900002038000020370000203E00002054
:101630002DE9F05F06460F4690469946DDE90AAB74
:10164000002440F2B270864203DB40F6330086424B
:1016500002DD0120BDE8F09F40F2B2750AE02846A5
:10166000FFF7B2FC10B12048044401E01F480444D5
:10167000681C85B2B542F2DB781EC7B2002510E0C7
:101680001B48405D40F2A321484304EBC0143046A0
:10169000FFF79AFC18B1012D01D116480444681CCB
:1016A00085B2BD42ECDBA8F1010040F2A321484322
:1016B00004EBC014C9EB4910C0EB092004EB001483
:1016C000CAEB0A1004EB80045C4401214FF0C050C7
:1016D000FFF716FD0120FFF7FFFC204600F00CF895
:1016E00000F028F80020B5E70085E2018033E10131
:1016F000882800088051010000B50246FFF712FE5D
:10170000100C03490880091D0A80FFF715FE00BD73
:101710001828004000B50246FFF704FEC2F303405C
:1017200003490880091D0A80FFF706FE00BD00007E
:101730000828004000BF0348008800F0200000286F
:10174000F9D0704704280040074800884FF6F77129
:1017500008400549088000BF0348008800F00800E1
:101760000028F9D07047000004280040704710B5E9
:1017700000F002F810BD00000CB5002001900090B0
:101780003348006840F480303149086000BF304879
:10179000006800F4003000900198401C019000980F
:1017A00018B90198B0F5A06FF1D12948006800F48C
:1017B000003010B10120009001E00020009000985E
:1017C000012843D12348006840F0100021490860F7
:1017D0000846006820F0030008600846006840F0F2
:1017E000020008601A484068194948600846406885
:1017F00048600846406840F4806048600846406899
:1018000020F47C1048600846406840F4E8104860C6
:101810000846006840F08070086000BF0C4800680F
:1018200000F000700028F9D00948406820F003005B
:10183000074948600846406840F00200486000BF21
:101840000348406800F00C000828F9D10CBD0000E6
:1018500000100240002002407CB500240025FFF764
:1018600011FD0546002022490860EDB917E000246B
:101870000CE0092200210820FFF7ECFCC0B20DF8B3
:101880000400012000F09CFE601CC4B2062CF0DBBA
:10189000684600F037FF4FF47A7000F091FE15486B
:1018A00000780128E3D022E000214FF40270FFF716
:1018B00037FC00211048FEF702FE14E0002510E07E
:1018C000002403E00DF80440601CC4B2062CF9DBD0
:1018D000684600F017FF4FF47A7000F071FE681C44
:1018E000C5B20A2DECDB034800780128E6D07CBDA8
:1018F00098012142A00000200024014010B50020E2
:101900000549087000214FF40270FFF709FC00211F
:101910000248FEF7D4FD10BDA000002000240140C5
:10192000042808D14FF0E021096941F004014FF08B
:10193000E022116107E04FF0E021096921F0040184
:101940004FF0E022116170477047000010B5134856
:10195000006840F0010011490860084640681049DD
:1019600008400E494860084600680E4908400B4987
:1019700008600846006820F4802008600846406837
:1019800020F4FE0048604FF41F008860FFF7EFFE70
:101990004FF000600449086010BD000000100240D4
:1019A0000000FFF8FFFFF6FE08ED00E010B5012192
:1019B000FE4800F0FEFC01286ED1FD48007878BB9F
:1019C0000421FC48FFF78EFA70B9FB480088401CE0
:1019D000F94908800846008845F20821884202DD5E
:1019E0000020F54908808CE3F348008842F6F8218E
:1019F000884211DD0020F0490880F049088001206C
:101A0000EB4908700020EE490870EE490860EE4985
:101A10000860FFF773FA74E30020E749088070E379
:101A2000FFE7E7480078B0B30421E248FFF75AFA2D
:101A300068B9E1480088401CDF49088008460088F2
:101A400042F21071884201DDFEF788FEA5E1DA4816
:101A5000008841F2883188420FDD0020D649088095
:101A60000120D34908700020D5490870D549086085
:101A7000D5490860FFF742FA8FE1CF480088B0F5FA
:101A80007A7FE3DDCC48008841F288318842DDDA94
:101A9000FEF764FE81E100E037E3C8490888C1171A
:101AA00000EBD1614911C94A1160C4490888C117C6
:101AB00000EBD1614911A0EB4111C54A11601046FC
:101AC0000068C008C34908601046007800F00700AD
:101AD000C1490860B9480088401CB84908801046D0
:101AE000006808B9FEF784FE0421B248FFF7FAF94E
:101AF00020B1B4480068401CB2490860B64800688C
:101B0000072870D1AF480068052804D3AE480068A4
:101B1000401CAD490860AF480068032872D1AB484B
:101B2000006813286FD2DFE800F00A263442505FC5
:101B30006F7D8B99A7B5C3D1DFF1FFEEED00A24811
:101B40000078401EA549087008460078032809D18E
:101B500000200870FEF702FE00209A4908609A49AA
:101B6000086007E000209E490860FFF7B5F80120F3
:101B700093490870FEE094480078401E9949087027
:101B8000012097490860FFF7A7F801208C490870E9
:101B9000F0E08D480078401E93490870002090497D
:101BA0000860FFF799F8012085490870E2E086484F
:101BB0000078401E8C494870012089490860FFF771
:101BC0008BF801207E490870D4E07F480078401EE1
:101BD00086490870002082490860FFF77DF80120DF
:101BE00077490870C6E0CDE077480078401E7F490D
:101BF000487001207A490860FFF76EF801207049AB
:101C00000870B7E0BAE0B4E06F480078401E77494A
:101C10008870002072490860FFF75EF8012068496B
:101C20000870A7E068480078401E714908700120DC
:101C30006B490860FFF750F801206149087099E08E
:101C400061480078401E6A49487000206449086075
:101C5000FFF742F801205A4908708BE05A48007893
:101C6000401E6449087001205D490860FFF734F8A0
:101C70000120534908707DE053480078401E5E49BA
:101C80000870002056490860FFF726F801204C49EB
:101C900008706FE04C480078401E5749487001209A
:101CA0004F490860FFF718F801204549087061E0C6
:101CB00045480078401E5049887000204849086017
:101CC000FFF70AF801203E49087053E03E480078CB
:101CD000401E4A490870012041490860FEF7FCFF98
:101CE00001203749087045E037480078401E4349D5
:101CF000487000203A490860FEF7EEFF01203049A5
:101D0000087037E02CE01DE00EE0FFE72E48007879
:101D1000401E3B490870012031490860FEF7DCFF96
:101D200001202749087025E027480078401E3449E3
:101D3000487000202A490860FEF7CEFF01202049A4
:101D4000087017E020480078401E2D498870012057
:101D500023490860FEF7C0FF01201949087009E017
:101D600019480078401E2649C87000201C490860A8
:101D700000E000BF00BF00201349086000201149A7
:101D800008600AE014480068072806D900200D49B9
:101D900008600D490860FEF7E1FC08480088B0F5CE
:101DA000187F7DDB17480D4909782DE000040040BD
:101DB0001800002000080140160000201400002038
:101DC0001B0000204C000020540000204000002098
:101DD0004400002048000020500000202300002084
:101DE000BC012142240000202700002029000020FF
:101DF0002C000020250000202E00002031000020B3
:101E0000330000201C000020405CC049C04A12780A
:101E1000895C0844BF490870BF480078BB49085C2A
:101E2000BC4909780844BB490870BB484078B749A9
:101E3000085CB84909780844B6490870B748007882
:101E4000B249085CB34909780844B2490870B348FC
:101E50004078AE49085CAF4909780844AD4908703C
:101E6000AE488078A949085CAA4909780844A9497C
:101E70000870AB480078A549085CA6490978084471
:101E8000A4490870A6484078A049085CA14909788F
:101E90000844A04908700A461078A24A117800E068
:101EA0002FE101EBD1725210A1EB420200EBD07393
:101EB0005B10A0EB43039A4203D1012095490870BF
:101EC00002E0002093490870974800788F49085C29
:101ED00096490978084495490870934840788B4999
:101EE000085C924909780844904908708E488078C7
:101EF0008649085C8D49097808448C4908708C48EB
:101F000000788249085C8949097808448749087043
:101F1000874840787D49085C8449097808448349AA
:101F20000870844800787949085C80490978084439
:101F30007E4908707F4840787449085C7B4909787D
:101F400008447A4908707B4880787049085C774972
:101F500009780844754908700A461078754AD1789E
:101F600001EBD1725210A1EB420200EBD0735B1077
:101F7000A0EB43039A4203D101206C49087002E0B0
:101F800000206A4908706348007800287ED06748BE
:101F900000780028FAD00020674908606749C1F836
:101FA00084015D484178007801EB80006449087045
:101FB0005A48007801015948407801EB80005749A0
:101FC000897808445F4908705F48007800EB80001A
:101FD000142101EB80005D49087051484178007878
:101FE00001EB80005A4908704F48007801014E48C3
:101FF000407801EB80004C498978084455490870C5
:102000004B484178007801EB8000534908704948FB
:10201000C078022803DA00204649C87002E0012097
:102020004449C8704348007801014248407801EBB8
:1020300080004049897801443E48C07801EB801017
:1020400000F5FA604549088036480078012802D139
:102050000020344908703348007820B138480078AF
:102060000C3037490870394800783C2825D10020C9
:102070003649087033480078401C324908700846D9
:1020800000783C2819D10020087000E037E02C4887
:102090000078401C2A49087008460078182801D1A9
:1020A0000020087026480078002806DB24480078C5
:1020B0000C2802DA00201B4908700020284908700B
:1020C00028490880134908700120274908702748CB
:1020D000007810B90120254908700121244800F03A
:1020E00059F90021224800F058F900220121204826
:1020F00000F070F900210220FFF702F801E0FEF77E
:102100002DFB01211A4800F045F910BD1C000020EC
:1021100024000020200000202700002029000020AB
:102120002C000020250000202E000020210000208F
:102130003100002033000020BC0121420000214278
:10214000390000203A000020230000203B0000203E
:102150003C00002038000020370000203E00002016
:1021600018000020140000201A0000205800002051
:10217000000400407FB505460C4601210220FEF711
:10218000BFFFADF80850ADF804400020ADF80600E0
:10219000ADF80A0001A90E4800F026F90122114607
:1021A0000B4800F017F91D208DF8000000208DF875
:1021B000010002208DF8020001208DF8030068461E
:1021C000FEF748FF0121024800F0E7F87FBD00005C
:1021D0000004004010B501214C4800F0EAF8012845
:1021E0007ED14B480078401C494908700846007869
:1021F0000A2858D10020087046480078401C4549FC
:102200000870084600783C284DD1002008704248EC
:102210000078401C4049087008460078052190FB72
:10222000F1F201FB120028B93A48007810B90120F8
:102230003A490870384800783C2834D100203649A3
:10224000087037480078172808D13648007828B138
:102250000020334908703349087024E03048007882
:102260000B280BD12F48007840B92D480078401C2E
:102270002B49087002202B49087014E02848007888
:1022800002280BD12748007840B900202649087061
:1022900023480078401C2249087004E02048007858
:1022A000401C1F4908701A48007810BB1B48007872
:1022B00010B9FEF7EBFA19E0002406E017480078A1
:1022C000401E1A490855601CC4B2062CF6DB17489C
:1022D00000F018FA11480078401CC0B20F4900E025
:1022E0000EE008700A2801DD002008700120104966
:1022F000086007480078042802D100200C490860D3
:102300000121024800F046F810BD0000000800401E
:10231000590000203B0000203A0000205A00002015
:102320003900002025000020580000205B0000201C
:10233000980121427FB505460C4601210420FEF795
:10234000DFFEADF80850ADF804400020ADF80600FF
:10235000ADF80A0001A90E4800F046F80122114626
:102360000B4800F037F81E208DF8000001208DF892
:10237000010003208DF8020001208DF8030068465B
:10238000FEF768FE0121024800F007F87FBD00005B
:1023900000080040CA430282704721B1028842F01F
:1023A0000102028004E002884FF6FE731A400280A8
:1023B000704730B50246002000230024158A05EA44
:1023C0000103958905EA010413B10CB1012000E075
:1023D000002030BD1AB183890B43838102E08389D9
:1023E0008B43838170470000002202881D4B984276
:1023F0000ED01D4B98420BD0B0F1804F08D01B4B34
:10240000984205D01A4B984202D01A4B984204D1F8
:102410004FF68F731A404B881A43174B984207D0D8
:10242000164B984204D04FF6FF431A40CB881A430C
:1024300002808B8883850B8803850A4B98420BD0DA
:10244000094B984208D00E4B984205D00D4B98424C
:1024500002D00D4B984201D10B7A0386012383826F
:1024600070470000002C014000340140000400408F
:1024700000080040000C0040001000400014004024
:1024800000400140004401400048014010B540F2C6
:1024900025511D4800F03EF810B31B4800F064F8C9
:1024A000C4B21A48008800F40040C8B91748008830
:1024B00000F4804060B10A2C03D00020134908804A
:1024C00020E01248008840F400401049088019E0DC
:1024D0000D2C06D10D48008840F480400B4908803F
:1024E00010E00A480088C0F30D0009490C54074861
:1024F0000088401C0549088008460088C72801DD7F
:102500000020088010BD000000380140AC00002011
:10251000BA00002070B502460024002300250020E8
:1025200040F66A16B14200D100BFC1F3421501F076
:102530001F03012606FA03F3012D02D196893340C9
:1025400006E0022D02D1168A334001E0968A33401C
:102550000C12012606FA04F41688344013B10CB1AB
:10256000012000E0002070BD01468888C0F308000B
:10257000704700BFFEE7014600BF704710B56FF01F
:102580000400FFF7CDF90A4800680A49B0FBF1F0F2
:10259000094908700846007800EB4001C1EBC01003
:1025A0004FF6FF7101EAC0000449088010BD000029
:1025B0000000002000127A00A4000020A6000020E5
:1025C0000146114A12884A434FF0E0235A61002223
:1025D0009A611A46126942F001021A6100BF4FF077
:1025E000E022106900F001021AB100F48032002AE2
:1025F000F5D04FF0E022126922F001024FF0E02303
:102600001A6100229A617047A60000200146114A13
:1026100012784A434FF0E0235A6100229A611A4629
:10262000126942F001021A6100BF4FF0E022106906
:1026300000F001021AB100F48032002AF5D04FF008
:10264000E022126922F001024FF0E0231A61002219
:102650009A617047A400002000BF054A128802F06A
:102660004002002AF9D0C2B2014B1B1D1A807047EC
:10267000003801404FF4A060FEF724FDFFF77EFF15
:10268000FEF7C0FCFEF77EFAFEF7BEF90A20FFF760
:1026900097FFFEF72DF829E015480078012808D1AA
:1026A0000020134908704FF41770FFF789FFFEF7F9
:1026B000CDF910480078022810D10F48007868B989
:1026C0000E48007850B9FFF719F9FEF7A9F8FEF7A0
:1026D000C7F8FF2007490870FEF70AF80848007895
:1026E000012803D1FEF79CF8FFF7B6F8D4E7000005
:1026F0001A0000203900002025000020580000208A
:10270000A00000207CB50546002000900190002626
:102710000024A878564931F8200000056978544A09
:1027200052F8211040EA8120297852F821100843FC
:1027300000906879114631F820000005297952F897
:10274000211040EA8120E97852F8211008430190D5
:1027500000204849086001204749C1F89401002041
:102760004449091F086000BF71E000266BE0072E96
:102770002AD11DF8240000F001003E49091D08601F
:102780005DF8240040084DF824001DF8240000F0F6
:1027900001003949C1F8A8015DF8240040084DF84E
:1027A0002400019800F0010032490C3108600198C2
:1027B00040080190019800F001002F49C1F8B001D4
:1027C0000198400801902FE01DF8240000F001005E
:1027D0002849091D08605DF8240040084DF82400D0
:1027E0001DF8240000F001002349C1F8A8015DF89C
:1027F000240040084DF824001DF8240000F00100DA
:102800001C490C3108605DF8240040084DF8240094
:102810001DF8240000F001001749C1F8B0015DF86F
:10282000240040084DF824001420FFF7EFFE01209B
:10283000104908601420FFF7E9FE00200E49C1F896
:10284000A001701CC6B2082E91DB601CC4B2022C21
:102850008BDB002007490C3908603220FFF7D6FED9
:1028600001200549C1F894011420FFF7CFFE7CBD7B
:1028700064000020A0012142000021420003030661
:1028800001040602050003051F1C1F1E1F1E1F1F3B
:102890001E1F1E1FB428000800000020B00000000A
:1028A0002801000864290008B00000201808000072
:1028B0004401000800A24A040000000000000000DB
:1028C00001020304060708090000000000000000E0
:1028D00000010102000000000000000000000000F4
:1028E0000000000000000000000000050F010101D1
:1028F0000100E107000000000000000000000000EF
:1029000000000000000000000000000000000000C7
:1029100000000000000000000002000001000000B4
:102920000200000004000000080000001000000089
:1029300020000000400000008000000000010000B6
:102940000000000001000000020000000000000084
:102950000000000000000000000000000000000077
:042960000000000073
:04000005080001C925
:00000001FF
